:020000040800F2
:1000000000000110E5560608FD18000859E7010830
:100010008557060885570608855706080000000022
:100020000000000000000000000000006541000822
:1000300069410008000000006D410008EDC800089B
:100040008557060885570608855706088557060808
:1000500085570608855706088557060885570608F8
:10006000855706088557060885570608291F000882
:100070003D1F0008511F0008651F0008791F000878
:100080008D1F0008A11F0008855706088557060820
:1000900085570608855706088557060885570608B8
:1000A000D51D0008FD1D0008251E0008C11D000803
:1000B0004D1E0008611E0008751E000885570608C1
:1000C0008557060885570608855706088557060888
:1000D0008557060885570608911A00089D1A0008DA
:1000E000855706088557060871410008B11E0008AB
:1000F000D91E0008011F00089D1E0008B51F00083A
:100100008557060885570608891E00088557060882
:10011000A91A0008B51A0008855706088557060869
:10012000C91F0008DD1F0008F11F00080520000896
:1001300019200008855706088557060885570608C0
:10014000855706088557060885570608C5410008E3
:100150002D2000084120000855200008855706087A
:1001600085570608855706088557060885570608E7
:1001700085570608855706088557060885570608D7
:080180008557060885570608A3
:10019000D0E907239A422FBFD01AC0688018C01A2E
:1001A000704700BFD0E9092300699A4238BF12188E
:1001B000D31A0138C01A7047D0E90902101AB0FAF0
:1001C00080F04009704700BF0246036A4069D16869
:1001D000C05C01338B4228BF00231362704700BF0D
:1001E000436A8269D154436A0169426B01338B428D
:1001F00028BF00234362D36843F08003D360704775
:10020000436B188810F0100002D01A889B880120D8
:10021000704700BF436B99891A88890610B5044658
:100220000AD592B2900607D5E26A002A29D09888AA
:10023000216B80B29047636B99891A88090692B244
:100240000FD510060DD5D4E909128A4214D0A16940
:100250002069895C99800132B2FBF0F100FB112228
:10026000A262998A1A88C90592B204D5D20744BFFE
:100270004FF6F7721A8010BDDA6822F08002DA6059
:10028000EFE79B88E2696169DBB28B54E269E16860
:10029000636B0132B2FBF1F001FB1022E261CBE7AC
:1002A000024B586FC0F30070704700BF0038024027
:1002B000704700BF704700BF036942681F2B10B42E
:1002C0000AD95468A3F1200C202101FA0CF1214233
:1002D00007D15DF8044B70471468202199402142F2
:1002E000F7D081690024C8680C7480684C68016884
:1002F00021F001010160206894F805C00C4C81894F
:1003000034F81C4089B221EA04011F2B818107D9EE
:10031000A3F1200120238B405DF8044BD36070478C
:10032000202101FA03F35DF8044B9360704700BF8E
:1003300010B1060882B00922274B8DF80720DA6831
:10034000D00319D4DA68D10640D4DA68D20541D492
:10035000DA6812F0E00F3BD1DB6813F0020F14BF34
:10036000082309238DF807309DF80730012B0AD0A8
:100370009DF8070002B0704701238DF807309DF803
:100380000730012BF4D1144A12E0D368DB0519D4ED
:10039000D36813F0E00F17D1D36813F0020F14BF26
:1003A000082309238DF807309DF80730012BDFD192
:1003B000D168C8034FF00103F4D4D368D906E4D55B
:1003C0000623EFE70223EDE70723EBE70623D4E755
:1003D0000723D2E70223D0E7003C0240704700BF6A
:1003E000704700BF01207047044BD3E900039842D7
:1003F00088BF03F50063181A704700BF4819002032
:10040000054AD2E900318B42FDD0D1180133C3F344
:100410000A03087A1360704748190020064BD3F886
:10042000080800B97047D3F80808A0F10500B0FA31
:1004300080F04009704700BF48190020012380F870
:1004400049307047064BD3F80C08D3F81028431EE8
:1004500090428CBF002001209B1A03EBC020704704
:100460004819002010B5D0F8E83504461B699847B4
:10047000032384F81231002010BD00BF08B5042208
:1004800090F81211D0F8E83580F8131180F8122195
:10049000DB689847002008BD08B5D0F8E435DB6973
:1004A00003B19847002008BD08B5D0F8E4351B6AB1
:1004B0009847002008BD00BF08B5D0F8E4355B6A56
:1004C0009847002008BD00BF10B5074C2068FF28E2
:1004D00008D00649D1F8142801F6180100F03AF8BE
:1004E000FF232360002010BD0000002048190020D9
:1004F000432301480B807047040000201223014869
:100500000B80704748000020042301480B8070478F
:100510005C000020704700BF704700BF704700BFFD
:10052000704700BF704700BF704700BF044B0020FA
:100530000522C3F80828C3F82008C3F82408704728
:1005400048190020024B0020C3F80808704700BF7C
:1005500048190020212838B50C4605D022282DD076
:10056000202813D0002038BD0029FBD0072AF9D15C
:10057000194BD3F8280893F82C1893F82D2893F8E2
:100580002E38206021716271A371EBE70029E9D058
:10059000072AE7D1104DD5F8243813B10968002097
:1005A0009847206821796279A379C5F8280885F8E9
:1005B0002C1885F82D2885F82E38D3E70029D1D0BE
:1005C000022ACFD1044BD3F82038002BCAD0098897
:1005D00000209847C6E700BF4819002010B4144C0B
:1005E000D4E900239A4286BF03F5006CACEB02020B
:1005F0009A1A0A44B2F5006F13D8B1B101444A1EE9
:10060000013810F801CFE118824203F1010381F8AB
:1006100008C0C3F30A03F4D1636000205DF8044B03
:10062000704702205DF8044B70470846F6E700BFAC
:1006300048190020007970470079C0F340107047D6
:1006400000794009704700BF704700BF704700BF86
:10065000D0ED007AD0ED036A30EE677AE6EE877A65
:10066000B0EE670AC0ED007A704700BFD0ED017AA6
:10067000F5EE407AF1EE10FA05D19FED0C7AC7EE57
:10068000207AC0ED017A31EE277AD0ED007A80ED44
:10069000021AC1EE076A30EE677AC0ED036AE6EE31
:1006A000877AB0EE670AC0ED007A704783F9223E80
:1006B0009FED047AC7EE007A77EEA07A80EEA70A63
:1006C000704700BF72C7D13D00230360436080EDD7
:1006D000020A704790ED017AD0ED036AD0ED027AFC
:1006E00030EE470AA6EE807A90ED000A80ED017A9E
:1006F00037EE676AE6EE867A37EEC07AC0ED027AA8
:10070000A6EE870A80ED000A704700BFD0ED056AAB
:10071000D0ED017A90ED007A90ED066AD0ED025AA4
:1007200090ED035A80ED050A66EEA77AC0ED066AE1
:10073000E7EE007A90ED077AE5EE867A90ED086AAA
:10074000D0ED045A80ED087AE5EE477AE5EEC67AF8
:10075000B0EE670AC0ED077A704700BFD0ED057AAA
:1007600090ED006A90ED067AD0ED035AE6EE007A3D
:1007700090ED016AF0EE406AA6EE267AB0EE670AC6
:10078000D0ED047A90ED026A67EEC07AA5EEC07AE9
:10079000E6EE267A80ED057AC0ED067A704700BF56
:1007A00003685A1C02601970704700BF0369013367
:1007B000012B03611CD0D0ED005AD0ED026A07EE88
:1007C000903A30EE656AF8EEE77A86EE277A77EEB1
:1007D000257AB0EE667A30EE670AC0ED017AA6EEB1
:1007E000007AC0ED007A80ED037A80ED027A7047DE
:1007F000002380ED010A80ED000A8360704700BF8E
:1008000003685A1C02601970704700BF024BD3F88E
:10081000300803681B68184748190020034AD2F8BB
:10082000343823EA0000C2F8340870474819002021
:1008300090F83420034602F0FF0012B1002283F842
:10084000342070472DE9F041204E96F83838002BBF
:10085000FBD1B9B3014400F1FF384F1ED6F8101890
:10086000D6F80C3818F8010F4A1CC2F30A029A4253
:1008700034BF002401249B1A314403EBC423012B11
:1008800081F83C08C6F810281AD10CF07BF8044611
:100890000D460CF077F8031B61EB0501B3F57A7F89
:1008A00071F10003F5D3D6F80C38D6F8102893422E
:1008B0008CBF002101219B1A03EBC123012BE4D043
:1008C000B845CBD10020BDE8F08100BF4819002019
:1008D0000A4B10B5D3F8084804B910BDD3F808384E
:1008E000052BFAD1064C002A084654F8BC3C1146A8
:1008F000F3DDFFF7A7FF54F8BC3C10BD48190020FA
:10090000402A002090F84820531C0244DBB280F8B3
:10091000483082F8341090F849200AB1132B03D9DB
:10092000002280F8482003B970470A4AD2F8081814
:100930000029F9D0D2F80828052AF5D110B5064CBF
:100940001946343054F8BC3CFFF77CFF54F8BC3CEB
:1009500010BD00BF48190020402A002090F8481020
:100960000023A0F8483001B97047094BD3F8082894
:10097000002AF9D0D3F80838052BF5D110B5054C6D
:10098000343054F8BC3CFFF75DFF54F8BC3C10BD5C
:1009900048190020402A00202DE9F0475D4E1F46EF
:1009A00006EB80039C68002C00F0AD8004F13E0350
:1009B000A36104F59F73E3614FF48073C4E90433CA
:1009C0002836236866600546E16094F83D00A3631D
:1009D000904608F07DFE814694F8440294F83CA0CD
:1009E000261D00284FD194F8450268BBD4F8403248
:1009F00083BB390734D418F0020F60D118F0010F0F
:100A000044D194F9472294F84712D4F84832002A86
:100A100010DB41481B018418DBB284F80033520913
:100A2000012301F01F0103FA01F140F822103046C2
:100A3000BDE8F087394A01F00F010A441B01DBB21F
:100A400013763046BDE8F08761F040FBD4F84032C1
:100A5000002BCED0324A116B0B4339071363CAD532
:100A60000135EDB2B9F1000FCBD04FF4E163FA06D6
:100A700089F80850A9F8063036D4BB0694F8462207
:100A800045D4322133E061F021FBACE7504608F059
:100A90001FFE0135EDB20028B3D04FF4C1620572DC
:100AA000C28094F84622022108F0C0FF94F9472240
:100AB00094F84712D4F84832002AAADABAE76B1C35
:100AC000DBB2B9F1000F99D089F808304FF4A16377
:100AD000A9F8063094F846224846022108F0A6FFFD
:100AE00018F0010F8DD0D1E794F846220221484634
:100AF00008F09CFF94F9472294F84712D4F8483242
:100B0000002A86DA96E726463046BDE8F0871221AD
:100B1000EDE700BF10B1060800E100E0FCEC00E0EA
:100B2000003802402DE9F047038A8489A4B21C40B2
:100B300082B045D0814688464FF0004501F14C0710
:100B400001F13406B4FA84F325FA03F2D24391B2E8
:100B5000A9F8101014401B3BB8F1000F5DD0042B16
:100B60002CD8DFE803F050463B300300D8F80C30B7
:100B7000D9F82CA033B19B6823B11FFA8AF108F190
:100B800004009847D8F8243033B19B6823B11FFA8A
:100B90008AF108F11C009847D8F83C302BB19B68CB
:100BA0001BB11FFA8AF130469847D8F854302BB160
:100BB0009B681BB11FFA8AF138469847002CC1D1B7
:100BC00002B0BDE8F087D8F80C30D9F834105B6873
:100BD00008F104009847002CB4D1F1E7D8F824308C
:100BE000D9F838105B6808F11C009847002CA9D18F
:100BF000E6E7D8F83C30D9F83C105B6830469847B7
:100C0000002C9FD1DCE7D8F85430D9F840105B684D
:100C100038469847002C95D1D2E7042B07D8DFE857
:100C200003F00319140F0A00D9F840300193019B17
:100C3000002C87D1C4E7D9F82C300193019BF7E74A
:100C4000D9F834300193019BF2E7D9F83830019399
:100C5000019BEDE7D9F83C300193019BE8E700BF29
:100C600038B5284C94F83828012A034603D0022AC4
:100C700009D0002038BD244951F8B82CA2B984F815
:100C80003828002038BD002540F20112C0E9545533
:100C9000C0E95655A0F8442100F5A27163F08CFB21
:100CA00084F83858002038BD402AD4F80C0819D9E7
:100CB000403A41F8B82C40228118C4F80C1880B290
:100CC000124940F2011401440020C3E95411C3E960
:100CD0005620A3F84441184603F5A27163F06CFB5B
:100CE000002038BD4FF0000541F8B85C02EB000170
:100CF000C4F80C1808BF022180B208BF84F8381865
:100D0000DEE700BF48190020402A0020842100208F
:100D100001EB810138B500EBC1010E4DB1F88C1328
:100D200004462846FFF75AFCE378C4F8A85340214C
:100D30000022C4E9EC12012293422046A4F89C232D
:100D400004F5677108BFC4F8AC5363F035FB0020AD
:100D500038BD00BF8C29002038B52A4B53F8742CBD
:100D60000F2A04D0511C43F8741C002038BD264AB9
:100D700092F83858002143F8741C002DF5D1D2F8B0
:100D80000C18D2F81048B1F5006F30D0A14235D020
:100D900002F63C0594BF641AC1F5006415FA81F5AA
:100DA000402C19D82144C2F80C184FF0000143F828
:100DB000B81C0CBF0223012382F8383840F201121C
:100DC0000023C0E95455C0E95643A0F8442100F57A
:100DD000A27163F0F1FAC8E7403C43F8B84C4031E7
:100DE0000123C2F80C1882F838384024E6E7C2F82C
:100DF0000C581CB1294602F63C05D1E7002382F8C5
:100E00003838B2E7402A00204819002070B590F821
:100E1000CF2590F8D13590F8CE5590F8D0C590F800
:100E2000CC1590F8CD6505EB02250CEB032C90F862
:100E3000D32590F8D23503EB0223012284B080F849
:100E4000112101F01F029BB2ADB21FFA8CFC012AE6
:100E500004468DF80810ADF80A50ADF80CC0ADF896
:100E60000E30C0F840318DF809600AD0022A57D000
:100E7000002A3CD001F0800160F080FF002004B027
:100E800070BD90F81231032B2BD15FFA8CFCBCF1B2
:100E9000010F26D8D0F8E43502A99B689847BDF821
:100EA0000E30002BEAD1C4E94A33C4E94C330421A3
:100EB0004FF4807284F81111A4F81C2104F58E718E
:100EC000204663F00BFA636DC44A1A61E278012A86
:100ED000D4D104F2CC545C614FF0802219681A60BE
:100EE000CCE7204660F012FF002004B070BD092E50
:100EF000F7D801A252F826F0A30F0008B31000089B
:100F0000E30E0008ED100008E30E00081B110008B6
:100F1000C70F0008E30E0008311000086110000838
:100F200001F0600120295FFA8CF334D0012E00F02B
:100F30006181032E00F09581002E9FD190F812213F
:100F4000022A00F01B81032ACBD11CF0800F40F055
:100F5000A48103EB830300EBC30393F87633002BE8
:100F600000F0A6819E4B012243F8602C9D4A02238B
:100F7000C4E94E334FF48070002184F81131A4F895
:100F80001C01C4E94C31C4E94A2204F58E712046A3
:100F900063F0A4F972E7D0F8E43502A99B6898479A
:100FA0006CE790F81231023B012B9AD88C4BD0F8A9
:100FB0001821002143F8681C12B1022243F8682C62
:100FC000894A0223D4E72E0A022EADF8063000F03B
:100FD000CD81032E00F09181012E82D1D0F8EC3525
:100FE00080781B680DF106019847BDF80630002B8C
:100FF0003FF444AFBDF80E20002A3FF43FAF9342C8
:1010000028BF13464FF480720221A4F81C2100224D
:10101000C4E94A0084F81111C4E94E33C4E94C32E2
:1010200004F58E712046ADF8063063F057F925E7D8
:10103000012B7FF456AF90F81221022A00F049816B
:10104000032A7FF44EAF4FF4807100F588720220BE
:10105000A4F81C11C4E94E3384F81101002190E773
:10106000EDB25F4E012D06F8705C3FF63AAF90F896
:101070001231022B00F02181032B7FF432AF002DBF
:1010800000F07F8190F81011012910D0D0F8E435DC
:101090005B68984716F8701CD4F8E43584F8101192
:1010A0001B6820469847D4F8E8359B68984700238A
:1010B000F9E690F81231023B012B3FF612AF012DF9
:1010C0007FF4DCAED0F8E43500259B68C0F81851F9
:1010D00002A9984704224FF48073C4E94A55C4E931
:1010E0004C5584F81121A4F81C31E7E6012D00F0DD
:1010F000CC80022D7FF4C2AE5FFA8CF3002B7FF41C
:10110000BDAE02694FEA1C23023B5268032B00F27A
:101110005681DFE803F05B426B5F5CEA03037FF418
:10112000E0AE90F81221032A3FF4DBAE016905F02E
:101130007F0680F8146108681A4665F30A120243B4
:101140000A604FF480720421C4E94A33C4E94C3385
:1011500084F81111A4F81C2104F58E71204663F067
:10116000BDF8636D1D4A1A61E278012A0DD0002E88
:1011700000F01281022384F812317FE65A063FF410
:101180007DAE194660F0FAFD78E604F2CC525A6161
:101190004FF0802219681A60E9E7032363F306120F
:1011A00001210F4D84F816110421002384F8111138
:1011B0004FF48071A4F81C11C4E94A33C4E94C33DC
:1011C00004F58E71204645F8642C7AE6022363F319
:1011D0000612E5E7052363F30612E1E7180008604D
:1011E000402A0020E0290020D8290020042363F3AE
:1011F0000612D5E790F81221022ABFD0032A7FF405
:1012000070AE002D7FF43AAE13F07F023FF44FAF83
:101210001CF0800F40F0C48003EB830100EBC101A0
:1012200081F8742381F8765381F87553282101FBE6
:10123000030300EB820293F87713506D03688A1E54
:10124000012A6FF35553D4F8E4258CBFC3F3007122
:10125000012161F31C739268036002A92046904744
:1012600025E790F81221022A88D0032A7FF439AEAC
:1012700025B9590602D0194660F080FDD4F8E4354E
:1012800002A99B682046984711E7D0F8E43502A9E7
:101290009B68C0F81851984709E703F07F0303EBF8
:1012A000830300EBC30393F81E31002B7FF45AAE87
:1012B000454B002243F8602C58E6002D3FF40AAF5E
:1012C00001210322D0F8E43580F8101180F81221B2
:1012D000E6E63E4984F811214FF480700022C4E90B
:1012E0004A11A4F81C01C4E94E33C4E94C3204F598
:1012F0008E71204662F0F2FFC0E5EDB2052D3FF69B
:10130000F0ADDFE805F02B231B130B03D0F8EC3511
:1013100080789B690DF10601984766E6D0F8EC35B8
:1013200080785B690DF1060198475EE6D0F8EC35F0
:1013300080781B690DF10601984756E6D0F8EC3528
:101340008078DB680DF1060198474EE6D0F8EC3561
:1013500080789B680DF10601984746E6D0F8EC3599
:1013600080785B680DF1060198473EE6D0F8E435D9
:1013700080789B6A0DF1060198474670C4F8F00525
:1013800033E60222D0F8E43580F8122180F81051BB
:101390005B68294698479DE6012384F812316DE584
:1013A000282303FB020181F81C2100EB820281F853
:1013B0001E5181F81D61906991F81F113EE70123CC
:1013C00063F30612ECE600BF402A0020D429002077
:1013D00010B5044629B990F81121032A0DD0002038
:1013E00010BDD0F8E4359B69002BF8D090F812219D
:1013F000032AF4D19847002010BDD0F890230B4663
:10140000D0F87C138A4213D9C078521A0128C4F844
:10141000902336D08A4228BF0A4692B2C4E9E2231A
:1014200004F55D71A4F87433204662F057FFD6E7E7
:10143000D0F8E4351B691BB190F81221032A1ED0A5
:1014400000234FF480720421C4E94A33C4E94C33C9
:1014500084F81111A4F81C2104F58E71204662F065
:101460003DFF636D104A1A61E278012AB7D104F298
:10147000CC545C614FF0802219681A60AFE798473E
:10148000DEE78A42D4F88003A4F8743328BF0A4602
:10149000084492B2C4E9E22304F55D71C4F8800304
:1014A000C4F88403C0E700BF1800086038B50446DC
:1014B00049B990F81131022B11D094F81631012B53
:1014C00040D0002038BDD0F8E4355B69002BF8D05F
:1014D00090F81221032AF4D19847002038BDD0F8A3
:1014E0003831D0F82421934236D9C178012908BF78
:1014F000D0F82811A3EB020318BFD0F82821C0F8B8
:10150000383108BF52189BB24FF480710025C0E9F2
:101510004C35A0F81C11C0E94A2200F58E7162F02A
:10152000DDFEE378C4F88053012BC4E9E255A4F84A
:10153000745308BFC4F8845304F55D71204662F00B
:10154000CDFEBAE72A4B226953F8641C5160002390
:1015500084F81631002038BDD0F83C31B3FBF2F5E9
:1015600002FB1535ADB99A4213D8D0F84021934209
:101570000FD24FF48073A0F81C31C0E94A55C0E97E
:101580004C5500F58E7162F0A9FEE378C4F8405125
:10159000C8E7D4F8E435DB681BB194F81221032ABC
:1015A00023D0E2780023012A4FF0050108BFC4F8D8
:1015B0008433C4E9E23384F81111C4F88033A4F809
:1015C000743304F55D71204662F088FE636D094A4C
:1015D0001A61E278012A7FF470AF04F2CC525A61AA
:1015E0004FF0802219681A6067E720469847D8E7CD
:1015F000402A002018000860F8B50B7813F0600648
:101600000D46044620D0202E25D1CE884EB31B0691
:1016100049D5384F687832463946FEF79BFFEB884C
:101620000222002684F811214FF48072C4E94E335F
:10163000C4E94A77C4E94C36A4F81C2104F58E713C
:10164000204662F04BFE0AE04B780A2B17D00B2B9A
:101650000ED0062B03D1204660F058FB0226304600
:10166000F8BD022248781144FEF774FF3046F8BDF9
:101670008B78002B3AD1204B43F85C6CEFE70222C9
:1016800080F811214FF48072A0F81C211B4A01231D
:10169000C0E94E33C0E94A22C0E94C3600F58E71EC
:1016A00062F01CFEDBE7164B164A4978116003F620
:1016B00018020321C0E9E46680F81111C0F88863BC
:1016C000C0F88023C078C3F8146801284FF00003E5
:1016D000C4F88C33A4F8743304F55D7108BFC4F802
:1016E0008423204662F0FAFD0026B8E760F00EFB86
:1016F000B5E700BF60210020402A0020E429002037
:10170000481900200000002070B50025402604463E
:1017100000F55D71A0F87453C0F87C6380F87753CE
:1017200062F014FF4FF4807304F58E71A4F81C313D
:101730002046C4F8246184F81F51A4F8225162F0B5
:1017400005FFD4F8E835A078012284F812215B68FF
:101750009847284670BD00BF2DE9F843044602258E
:1017600001264FF0400840F201130027A0F8443151
:10177000C0F84C8180F84751A0F84A6180F8487160
:1017800000F5A27104F5677962F0E0FE4946204653
:10179000A4F89C63C4F8A48384F89F5384F8A073CE
:1017A00062F0D4FE4FF48173A4F86C310823C4F8BE
:1017B0007431032384F86F31204604F5B671A4F820
:1017C000725162F0C3FE0D4BA3F84C50FEF7AEFE13
:1017D000E2780B4BC4F8B083B2422046C4F8B4732D
:1017E000A4F89C63C4F8A83308BFC4F8AC334946D6
:1017F00062F0E2FD0020BDE8F88300BF0000002099
:101800008C29002038B50122044640F20113A0F8CB
:1018100044310125114662F081FE2946204600220E
:10182000A4F89C5362F07AFE4FF481732046A4F82A
:101830006C312A46022162F071FEFEF783FE002021
:1018400038BD00BF08B5024860F032FA014808BD53
:10185000043D0708E829002008B5024860F028FA8E
:10186000014808BD0C3D0708E829002008B50248DA
:1018700060F01EFA014808BD143D0708E829002061
:1018800008B5024860F014FA014808BD203D070879
:10189000E829002008B5024860F00AFA014808BDAE
:1018A0002C3D0708E82900201049114BD1F8882069
:1018B00042F4700210B4C1F888201A680D4C002060
:1018C00042F001021A6098601A6822F0847222F4D1
:1018D00080321A605C601A68074C22F480221A6019
:1018E000D8608C605DF8044B704700BF00ED00E0ED
:1018F000003802401030002400000008704700BF8C
:101900002DE9F84346697EB9D0F80080C8F30D0987
:1019100004460F46B9F1000F26D03F68FEF70AFDD6
:10192000092804D06FF001063046BDE8F8834A4D1F
:101930002B6923F440732B612B6943F400732B61F3
:101940002B6943F001032B61C8F80070FEF7F2FC2D
:101950002B69092823F001032B61E3D123680433A9
:1019600023603046BDE8F8833C4B98452AD303F505
:101970008043984524D303F58043984554D3384B8E
:10198000984554D903F58033984553D903F500336E
:10199000984552D903F50033984551D903F50033E2
:1019A00098453ED903F5003398454CD903F580237B
:1019B00098454BD9B8F1016F4BD305200BF0BCFC17
:1019C0004FF00809FEF7B6FC092804D04FF0FF36A7
:1019D0003046BDE8F883204D2B6923F440732B611A
:1019E0002B6943F400732B612B6923F0F8032B61FF
:1019F0002B6943EA090343F002032B612B6943F48B
:101A000080332B61FEF796FC2B6923F002032B61D8
:101A10002B69092823F0F8032B61D7D1D4F8008073
:101A20007BE74FF03809CDE74FF01009CAE74FF0D8
:101A30001809C7E74FF02009C4E74FF02809C1E7AC
:101A40004FF03009BEE74FF04009BBE74FF04809BF
:101A5000B8E74FF05809B5E7003C024000400008E5
:101A6000FFFF0008002808DB00F16040090100F5D5
:101A70006140C9B280F800137047044B00F00F00BA
:101A800009010344C9B21976704700BFFCEC00E0BD
:101A90000148FEF7BFBB00BF640000200148FEF70D
:101AA000B9BB00BFB00200200148FEF7B3BB00BFC6
:101AB000FC0400200148FEF7ADBB00BF4807002032
:101AC00038B5D0E9004307EE902A1B68354A2068F4
:101AD0000139934204688DB216D002F580629342B8
:101AE00012D002F5705293420ED002F580629342FA
:101AF0000AD002F58062934206D02B4BD3F890397E
:101B00005B0807EE103A04E0274B03F5196393EDE9
:101B1000007ADFED266AB8EE477AF8EE677A87EE4C
:101B2000270A30EE260A66F02FF81E4A238801386D
:101B3000944280B29BB212D002F5806294420ED0E1
:101B4000B4F1804F0BD0A2F58032944207D002F559
:101B50008062944203D002F58062944202D123F065
:101B600070039BB2124A944212D002F580629442F2
:101B70000ED023F4407302F56C429BB29442238052
:101B8000E56220850AD1002323860123A38238BD84
:101B90002380E56220850123A38238BD054B9C424A
:101BA000F1D0F8E700000140000000200AD7233CF4
:101BB000001000400004014070B54068837903F0D4
:101BC000020213F0040300F0C9804FF0000E134628
:101BD00004247246754690F805C0BCF1030F30D856
:101BE000DFE80CF08E5F30020368188C20F4805020
:101BF0000004000C1884188C9C8820F40050000409
:101C00002A43000C40EA0232988B6C4D20F4E640E7
:101C10000004000CAB42A4B240F4C04000F0B0801D
:101C200005F58065AB4200F0AB809C809883196419
:101C30001A849A8B22F400621204120C42F400629D
:101C40009A8370BD2A4305685C4E288C20F480700E
:101C50000004000C2884288CB5F804C020F400701F
:101C60000004000C40EA0222A88B20F0730000045C
:101C7000000CB5421FFA8CFC40F0600073D006F5F2
:101C80008066B5426FD0A5F804C0A883E9632A84B2
:101C9000AB8B23F008031B041B0C43F00803AB833E
:101CA00070BD2A430568454E288C20F010000004C2
:101CB000000C2884288CB5F804C020F02000000413
:101CC000000C40EA0212288B20F4E6400004000CCD
:101CD000B5421FFA8CFC40F4C04061D006F5806626
:101CE000B5425DD0A5F804C02883A9632A842B8B54
:101CF00023F400631B041B0C43F400632B8370BDAF
:101D000000682E4E2A43058C25F001052D042D0C6C
:101D10000584058CB0F804C025F002052D042D0CB7
:101D20002A43058B25F073052D042D0CB0421FFAB4
:101D30008CFC45F0600528D006F58066B04224D0C2
:101D4000A0F804C0058341630284038B23F00803D9
:101D50001B041B0C43F00803038370BD4FF4807E0B
:101D60001C46012537E722F4006242EA032222F4EE
:101D700080622CF4405C42EA04224CEA0E1C82E7AA
:101D800024F4804444EA8E144FE74FF6F37616406D
:101D90002CF4407C46EA03024EEA0C0C2243CFE7C7
:101DA00022F0800242EA031222F040022CF4406C3E
:101DB00042EA04124CEA8E0C94E700BF0000014096
:101DC000024B0348D3F8A810FEF7ACBE402A00200F
:101DD0000000014010B5064C0648D4F8A810FEF7E4
:101DE000A1FED4F8C8100448BDE81040FEF79ABE22
:101DF000402A0020000001400040014010B5064C80
:101E00000648D4F8A810FEF78DFED4F8CC1004488C
:101E1000BDE81040FEF786BE402A002000000140C9
:101E20000044014010B5064C0648D4F8A810FEF74F
:101E300079FED4F8D0100448BDE81040FEF772BE19
:101E4000402A00200000014000480140034B4FF0B1
:101E50008040D3F8AC10FEF765BE00BF402A0020DA
:101E6000024B0348D3F8B010FEF75CBE402A0020B6
:101E700000040040024B0348D3F8B410FEF752BEF2
:101E8000402A002000080040024B0348D3F8B81055
:101E9000FEF748BE402A0020000C0040024B0348D9
:101EA000D3F8C410FEF73EBE402A002000040140D3
:101EB00010B5064C0648D4F8C410FEF733FED4F82B
:101EC000D4100448BDE81040FEF72CBE402A002084
:101ED000000401400018004010B5064C0648D4F834
:101EE000C410FEF71FFED4F8D8100448BDE8104017
:101EF000FEF718BE402A002000040140001C0040EC
:101F000010B5064C0648D4F8C410FEF70BFED4F802
:101F1000DC100448BDE81040FEF704BE402A002053
:101F200000040140002000400348D0F8A03913B15C
:101F300000F6941018477047000000200348D0F8BE
:101F4000C03913B100F6B4101847704700000020E4
:101F50000348D0F8E03913B100F6D41018477047A1
:101F6000000000200348D0F8003A13B100F6F41046
:101F700018477047000000200348D0F8203A13B1FA
:101F800000F6142018477047000000200348D0F8DE
:101F9000403A13B100F63420184770470000002083
:101FA0000348D0F8603A13B100F654201847704740
:101FB000000000200348D0F8803A13B100F67420E6
:101FC00018477047000000200348D0F8A03A13B12A
:101FD00000F6942018477047000000200348D0F80E
:101FE000C03A13B100F6B420184770470000002033
:101FF0000348D0F8E03A13B100F6D42018477047F0
:10200000000000200348D0F8003B13B100F6F42094
:1020100018477047000000200348D0F8203B13B158
:1020200000F6143018477047000000200348D0F82D
:10203000403B13B100F634301847704700000020D1
:102040000348D0F8603B13B100F65430184770478E
:10205000000000200348D0F8803B13B100F6743034
:10206000184770470000002002683649002310B46A
:1020700022F00102212488420260036043608360F1
:10208000C3600361446138D02F4B98422ED02F4B50
:1020900098423CD02E4B984240D02E4B984232D0A2
:1020A0002D4B984241D02D4B984246D02C4B984214
:1020B00017D02C4B98423CD02B4B984216D02B4B30
:1020C000984224D02A4B984228D02A4B98421AD0C2
:1020D000294B984229D0294B98422ED0284B984220
:1020E00008D14FF03D5243F8AC2C03E04FF474623A
:1020F00043F8202C5DF8044B7047224B5DF8044BED
:102100003D229A607047204A43F8642CF2E74FF46E
:1021100074125DF8044B43F8382C70474FF074622A
:102120005DF8044B43F8502C7047184A43F87C2C58
:10213000E0E73D2243F8082CDCE7154A43F8942CED
:10214000D8E700BF106002402860024040600240B3
:10215000586002407060024088600240A060024007
:10216000B8600240106402402864024040640240AB
:10217000586402407064024088640240A0640240D7
:10218000B8640240006002403D000020400F002083
:1021900000003D2000222DE9F04713460D684FF066
:1021A000010E032604E00133102B02F1020239D0A4
:1021B0000EFA03FC3CEA0504F5D1076806FA02F4BE
:1021C00027EA040707600F79D0F800A007FA02F9A0
:1021D000013F49EA0A09012FA046C0F800906FEAC2
:1021E000040411D887683C4084604C798768944027
:1021F0003C438460446824EA0C0444608C7947685A
:102200009C40A4B23C434460C46824EA0804C4600F
:10221000CC79C768944001333C43102BC46002F171
:102220000202C5D1BDE8F0872DE9F0410021274D1C
:102230002748DFF8A88082B0382268F0CCFE254914
:1022400005F1C8072E4605F1DC044246002301E0F3
:1022500054F8332091420AD001330E2BF8D10020DC
:102260005FF034FFBE420BD056F8141FEDE71A4A58
:1022700002EBC30393F838015FF028FFBE42F3D1AD
:10228000DFF8548005F1DC062E204FF0007700E0E7
:10229000287907F01DFA1435044688B1036803F164
:1022A0003F4303F57E0308EB932393F8A4015FF00B
:1022B0000DFFA3880197206800936946FFF76AFF26
:1022C000B542E5D102B0BDE8F08100BF68B10608B3
:1022D000E82A00200018004010B106080000014064
:1022E0002DE9F04F1C2085B007F0F2F911210446CA
:1022F00006F060FC002C00F010822368A2885A834C
:10230000C8200AF06DFB2368A2881A831B2007F0FF
:10231000DFF920B140F211120023C280037240F2B3
:1023200011220023E2802372AB4B5021082283F854
:102330004313C3F88820BFF34F8FBFF36F8FA74DB0
:10234000A74C2B6BDFF8C4A2DFF8C492DFF8C4827D
:10235000A44E43F001030DEB02012B63204640F233
:1023600002334FF4C057CDE90273FFF713FF636ADE
:102370009D4F23F470436362636A43F420436362B6
:10238000636A23F470236362636A43F42023636205
:10239000192007F09DF9002106F00CFC6B6C934CA2
:1023A0009349DFF874C2DFF874E243F480436B644E
:1023B0006A6B904B012042F080026A63C4F8C43615
:1023C00048618D4984F8EB00C4E938C18B49C4F8F1
:1023D000F01001F58071C4F8F81001F50071C4F82F
:1023E0003411A1F5F071C4F8FC1001F50071C4F8C6
:1023F0003811A1F5F071C4F8001101F50071C4F8AD
:102400003C11A1F5F071C4F8041101F50071C4F894
:102410004011A1F5EC61C4F8F4104031C4F8AC11DE
:10242000C031C4F870112031C4F874112031C4F8DF
:1024300078112031C4F87C112031C4F8801103F1E7
:102440002C0B20314833C4F88411C4F8CC36203129
:102450000223DFF8CCC1C4F8881184F8E8302031B9
:102460004FF0A043C4F88C11C4F8EC3001F50261C0
:10247000C4F8C8B6C4E96CA9C4E96E8EC4E971C7D2
:10248000002204F1E005C4F8EC114FF05021C4F82B
:10249000CC61C4F8C01184F8F20184F8F4212B4611
:1024A0001146402683F81C21A3F822210132042A78
:1024B000C3E9496183F81D0183F81F11C3F8301186
:1024C00003F12803EED100222B461146402083F869
:1024D0007423A3F87A230132042AC3E9DF0183F8C5
:1024E000751383F87713C3F8881303F12803EED12B
:1024F0004FF0A04300269A6822F001029A60DA6841
:1025000042F04002DA605FF035FF94F8E92094F879
:10251000E3C0D4F8EC30921B18BF0122120142F044
:10252000210262F31746BCF1010F9E6307D19A683E
:1025300022F03E0141F02A0161F307029A60DA6855
:10254000D4F8EC61D4F8F000C2F3076121F0600127
:1025500041F0400161F31F620021DA6031600268DE
:1025600061F3CC22026094F8EB20012A10D10268BA
:10257000234E244942F00302026080274FF4A072E8
:102580005F629E62C3F80411C3F80821C3F80C21EE
:1025900000220292029A42F020020292029A102134
:1025A00061F38A120292029A1A611A690292164A19
:1025B00003E019690291013A02D002998E06F8D41B
:1025C00000220192019A42F010020192019A1A61CE
:1025D0001A6901920C4A29E000E100E0003802404B
:1025E000000002400080005000700050402A00208F
:1025F000003C0140940B00204000400100080050C6
:1026000080004000C0008000400D0300001000501A
:10261000002000500030005008040100004000502D
:102620000060005019690191013A02D00199C90670
:10263000F8D494F8E16000274FF0FF32076147615A
:102640008261C7615EB305F1140E3B490EEB860E45
:102650004FEA86094FF0FF0851F8042F1668002E44
:10266000ACBF00264FF09046714516601761C2F866
:102670000880F1D15035314905EB09064FF0000EC5
:10268000FF2751F8042F1568002DACBF00254FF02F
:102690009045B1421560C2F810E09760F1D102692F
:1026A000BCF1010F42F48072026128D000229A61CD
:1026B00094456FF080414FF0FF32214859615A60D4
:1026C000596114BF00221022986142F47012996976
:1026D00042F4605242F008020A439A619A68D4F8C0
:1026E000C81642F0010209689A608847154B5021CC
:1026F000082283F843139A6005B0BDE8F08F124AB0
:1027000002636FF080414FF0FF3000229A615961FF
:1027100058600B4859619861D7E7C8200AF060F902
:102720001B2006F0D5FF00283FF4FEAD40F2111348
:10273000C3800472F8E500BF342B0020702B00200A
:102740000008008000E100E003018100224A936854
:1027500003F00C03042B10B421D0082B22D01F4B04
:1027600003601D4C1E4AA168C1F30311114491F886
:10277000F81BCB404360A168C1F38221114491F85A
:10278000F81B23FA01F18160A1685DF8044BC1F3E5
:1027900042310A4492F8F82BD340C3607047114B82
:1027A0000360DEE75368516813F4800F01F03F01C6
:1027B000536814BF0B4A094AB2FBF1F1064A52684A
:1027C000C2F30142C3F38813013201FB03F3520049
:1027D000B3FBF2F30360C4E7003802400024F400C6
:1027E0000000002000127A0070B5446B8668A3894F
:1027F00023F400531B041B0CA38182790546407906
:1028000012F0040F14BF4FF4805C4FF0000C110362
:1028100010F0010F4FEA02220CBF0023042302F440
:102820008062800748BF43F0080342EA0C0213436A
:10283000228A92B201F4005122F440520A432282C9
:10284000A28922F4B05222F00C021204120C1A4394
:10285000A281A38A23F440731B041B0C84B0A382BF
:102860006846FFF773FF244B9C4205D003F5806355
:102870009C4201D0029A00E0039AA3891F491B04DD
:1028800002EB82024CBF7300B30002EB8202B2FB88
:10289000F3F3A1FB0302A08952096426000406FB9E
:1028A00012334FEA02121FD41B013233A1FB031370
:1028B000C3F3431313439BB22381AB796A6B13F0C9
:1028C000080F938A0AD09BB243F00803938293893E
:1028D0009BB243F40053938104B070BD23F008030E
:1028E0001B041B0C9382F2E7DB003233A1FB0313C2
:1028F000C3F342131343DEE7001001401F85EB5181
:102900002DE9F8431D462E4B9DF820609DF824903C
:102910009842884617463BD02A4B984240D02A4BD3
:10292000984245D0294B984221D14B463246294600
:102930000420FEF731F804460023C4E90B87C4E9FC
:102940000733C4E909336671A56084F80690204610
:10295000FFF74AFFF107626B12D4B3070BD49389D8
:102960009BB243F4005393812046BDE8F8830024D2
:102970002046BDE8F883D36843F08003D360EEE7D8
:102980004FF6DF731380D36843F02003D360E4E78E
:102990004B46324629460120FDF7FEFF0446CBE7B1
:1029A0004B46324629460220FDF7F6FF0446C3E7B0
:1029B0004B46324629460320FDF7EEFF0446BBE7AF
:1029C0000044004000480040004C004000500040DF
:1029D000816009E7417107E72DE9F043DFF81482D0
:1029E00008EBC00985B00546C70099F80C0C06F045
:1029F0006FFE044699F80D0C06F06AFE064699F83B
:102A00000E0C5FF063FB6B1CDBB2002C00F0AD80A2
:102A100040F60E122372E280002E00F0C380337263
:102A200040F60E232046F38004223A2106F0FEFFF2
:102A3000042230463A2106F0F9FF08EB0703624A08
:102A4000D3F8084C944200F09880604B9C4200F010
:102A50009E805F4B9C4200F0AB80474497F80F2C60
:102A6000022A5CD0032A7ED05A4B5B4E012A18BF43
:102A70001E46A7886846FFF769FE27F03F07029BBE
:102A8000564AB3FBF6F63F04A2FB03233F0C47EA8A
:102A90009347A780228822F001021204120C2280A0
:102AA000B2B2C6F30B069B0C002E59D04FF49671B0
:102AB00001FB03F34A49A1FB03139B0901339BB2BA
:102AC00042F400422384A2832388464A9BB243F007
:102AD00001032380238823F4816323F002031B0472
:102AE0001B0C4FF4804143F48063238021812388B1
:102AF00023F080031B041B0C238023889BB202EB72
:102B0000451243F0010323800121002382F8D856A7
:102B100082F8D91682F8DA3605B0BDE8F083A688C7
:102B20006846FFF713FE26F03F06029A2B4B360449
:102B3000A3FB0213360C46EA9346A680218821F0B7
:102B400001010904090C21809B0C274901339209DA
:102B50002384A1FB02329209042A38BF0422B2E77F
:102B600042F00102A2E7214E83E7002E3FF465AF59
:102B7000337240F60E23F3805AE71D4B1A6A42F473
:102B800000121A621A6A22F400121A6265E703F54B
:102B9000F0331A6A42F480021A621A6A22F480023E
:102BA0001A625AE7042220463A2106F03FFF44E722
:102BB00003F5EE331A6A42F400021A621A6A22F42A
:102BC00000021A6249E700BF00540040005800406C
:102BD000005C0040804F1200009F240083DE1B43F6
:102BE000D34D6210402A0020632D3E05C027090006
:102BF00000380240000000202DE9F047954D90F983
:102C000000108046807805EBC1060138CC0090B0FA
:102C1000D6F8081C14282ED8DFE810F0530126013E
:102C2000150057006100A200AA00CB01BD017D0084
:102C3000870045020D02E001C500D50030003800D4
:102C4000AA019C015B01888A0C8B81B2824841EA0F
:102C5000044130EA010100F02681D8E90210521A3D
:102C600042F2107163EB00038A4273F1000302D356
:102C7000152388F8023010B0BDE8F08798F81300EB
:102C80000882C8E90223122088F80200888A0C8B87
:102C900080B240EA0440714C34EA000000F0B68093
:102CA00000200E900F9001200F910E900E99002998
:102CB00000F01E820F9914310F910F990968490590
:102CC000CBD5142388F80230D5E798F8110000F02E
:102CD000FE000882C8E90223052088F80200888ADD
:102CE0000C8B80B240EA04405D4C34EA000000F0F6
:102CF000A480002000900190012001910090009993
:102D0000002900F0018201991431019101990968AB
:102D10004F05D6D4A1E798F8110040F001000882D1
:102D2000C8E902230B2088F80200888A0C8B80B245
:102D300040EA04404B4C34EA00006FD0002004907D
:102D400005900120059104900499002900F0D68196
:102D5000059914310591059909684D05B1D47CE7B1
:102D600098F813000882C8E90223072088F80200B7
:102D7000888A0C8B80B240EA0440384C34EA000068
:102D80005FD00020029003900120039102900299ED
:102D9000002900F0C5810399143103910399096852
:102DA0004E058ED459E7088820F480600004000C9A
:102DB000088098F8110000F0FE000882C8E902239C
:102DC000102088F80200888A0C8B80B240EA044008
:102DD000234C34EA000012D000200C900D9001200A
:102DE0000D910C900C99002900F094810D991431EB
:102DF0000D910D99096848053FF563AF2DE798F8E7
:102E00001330FF2B06D198F810301BB1132388F82C
:102E1000023030E7112388F802302CE7D8F814008C
:102E2000012800F09381022800F049820E20098BCE
:102E300088F80200C8E902231DE7062388F802305B
:102E400019E7D8F81400002800F07081082388F8EA
:102E5000023010E70000002001000300840007009A
:102E60008200070002000300088820F400600004CC
:102E7000000C0880088880B240F4806008800888D0
:102E800080B240F480700880032088F80200888AAD
:102E90000C8B81B2AB4841EA0441C8E9022330EA15
:102EA00001037FF4E8AE98F81230002B40F0D38194
:102EB00098F81330FF2B00F04682042388F8023084
:102EC000D9E6098889053FF5C8AE002388F80230A5
:102ED000D1E62C4494F80C0C06F0FAFB064694F864
:102EE0000D0C06F0F5FB984AB2F8383701339BB267
:102EF0008246A2F8383716B13368B2881A83BAF11D
:102F0000000F04D0DAF80030BAF804201A83112137
:102F1000304605F04FFE1121504605F04BFE4FF0B4
:102F2000090965272EB13368B28819690A4240F051
:102F30002881013F00F0228109F024FD04460D465E
:102F400009F020FD001B61EB0501052871F100036C
:102F5000F6D3E7E7088880B240F4007008804FF6A7
:102F6000FF3088820121C8E9022388F8021082E636
:102F7000D8F81400002800F07281D8F8184014F82E
:102F8000016B0E8201381225C8E90504C8E9022345
:102F900088F802506FE6888A0C8B81B2694841EA52
:102FA000044130EA01017FF458AE0A2388F8023068
:102FB00061E6088880B240F480700880092088F8B3
:102FC0000200888A0C8B81B25E4841EA0441C8E95C
:102FD000022330EA01037FF44EAEE6E70024012528
:102FE0000A940B940B910A950A98002800F04A81E4
:102FF0000B9814300B900B98006846077FF52DAEA8
:10300000D8F81400032800F07281022800F24681EB
:10301000088820F480600004000C0880088880B2D2
:1030200040F400700880098A88F81C40C8E902232F
:1030300088F802501FE600200124089009900991A9
:1030400008940898002800F0178109981430099016
:103050000998006847077FF500AEEFF3118510204F
:1030600080F31288088880B240F400700880D8F895
:1030700018000E8A471CC8F81870EDB2067085F368
:1030800011880D8AD8F818106FF001004E1CC8F88E
:1030900018600D70C8E90223C8F8140088F81C40B5
:1030A00088F80240E7E5002006900790012007918C
:1030B0000690069C002C00F0EB80079C14340794CB
:1030C000079C246864067FF5C8AD0C8AD8F81810F0
:1030D0004D1CC8F818500C70D8F8141088F81C0053
:1030E0000139C8E90223C8F8141088F80200C2E5C3
:1030F0000F9918310F910F990968AEE505991831AC
:10310000059105990968A8E501991831019101997E
:103110000968A2E50D9918310D910D9909689CE592
:103120000399183103910399096896E5088880B2DC
:1031300040F4007008800121C8E9022388F80210D9
:1031400099E500BF01000300402A0020088820F410
:1031500080600004000C0880EFF31184102080F3DD
:103160001288088B088880B240F40070E4B20880AE
:1031700084F311880C2188F802105BE616B13368DD
:10318000B2885A8309F0FEFB04460D4609F0FAFBAB
:10319000031B61EB0501052B71F10003F6D316B19A
:1031A0003368B2881A8309F0EDFB04460D4609F036
:1031B000E9FB031B61EB0501052B71F10003F6D35D
:1031C000B9F101097FF4ADAE16B13368B2885A8304
:1031D00009F0D8FB04460D4609F0D4FB031B61EB54
:1031E0000501052B71F10003F6D3BAF1000F04D0ED
:1031F000DAF80030BAF804205A8309F0C3FB044619
:103200000D4609F0BFFB031B61EB0501052B71F1B6
:103210000003F6D316B13368B2881A8309F0B2FB03
:1032200004460D4609F0AEFB031B61EB0502052BBE
:1032300072F10003F6D3BAF1000F04D0DAF80030CF
:10324000BAF804201A8398F90000441C3FF43DAEFC
:10325000FFF7C2FB39E60F2388F802300BE5088838
:1032600080B240F4007008800121C8E9022388F888
:103270001C1088F80210FEE4099918310991099987
:103280000968EAE40B9918310B910B990968E4E499
:1032900007991831079107990968DEE4D8F81800F2
:1032A000098A441CC8F818400170D8F81410C8F8EE
:1032B00008200139C8F81410C8F80C30DBE408887D
:1032C00080B240F400600880EFF31184102080F396
:1032D0001288088B088820F480600004000CE4B297
:1032E000088084F311880D2188F80210A2E508886F
:1032F00020F480600004000C0880EFF3118410209B
:1033000080F31288D8F818000D8A461CC8F8186097
:103310000570088880B240F40070E4B2088084F33D
:103320001188D8F81800098A441CC8F818400170A0
:10333000D8F814100C200239C8E90223C8F8141078
:1033400088F8020097E498F81030002B3FF4B5ADF0
:103350002BE600BF38B5184D9DF814E005EB40147E
:103360004FEA401C94F8D90600B938BD84F8EB2622
:10337000C4F8EC3601220023490005F5DB6584F82A
:10338000EA2684F8F436049A84F8E8E6022384F8FE
:10339000E916C4F8F02684F8DA36654409F0F2FA42
:1033A00002460B462846FFF727FC94F8DA36002B36
:1033B000F4D194F8F40638BD402A0020026813794D
:1033C000012B01D00020704710B59468517C92F910
:1033D000100084B00DF10F0204F00104019400927A
:1033E000F024FF228DF80F40FFF7B4FF04B010BDAA
:1033F00002681379012B01D00020704700B592F9C3
:1034000010008C46517C926885B002F00102019256
:103410006FEA0C0E0DF10F0200924CEA0E1CD22244
:103420008DF80FC0FFF796FF05B05DF804FB00BFF5
:1034300002681379012B01D00020704710B5946801
:10344000517C92F9100084B00DF10F0204F00104D8
:1034500001940092B424FF228DF80F40FFF77AFF09
:1034600004B010BD02681379012B01D00020704711
:1034700010B5946892F9100084B08DF80F10517C4B
:1034800004F001020DF10F04CDE90042A522FFF77F
:1034900061FF04B010BD00BF02681379012B01D099
:1034A0000020704710B59468517C92F9100084B0E8
:1034B0000DF10F0204F00104019400929624FF2202
:1034C0008DF80F40FFF746FF04B010BD0268137976
:1034D000012B01D00020704710B5946892F91000BC
:1034E00084B08DF80F10517C04F001020DF10F042F
:1034F000CDE900428722FFF72DFF04B010BD00BFC9
:1035000010B504682379012B84B002D0002004B0E8
:1035100010BD94F910000A46617CA468D2018DF8B0
:103520000F2004F001020DF10F04CDE900427822D2
:10353000FFF710FF04B010BD02681379012B01D012
:103540000020704710B59468517C92F9100084B047
:103550000DF10F0204F00104019400925524A522FC
:103560008DF80F40FFF7F6FE04B010BD38B5184DCA
:103570009DF814E005EB40144FEA401C94F8D9067E
:1035800000B938BD490084F8EB26C4F8EC3684F85D
:10359000E9160023049984F8E8E6022205F5DB65C4
:1035A00084F8EA36C4F8F01684F8F43684F8DA269B
:1035B000654409F0E7F902460B462846FFF71CFB75
:1035C00094F8DA36002BF4D194F8F40638BD00BF35
:1035D000402A002070B504682379012B84B002D002
:1035E000002004B070BDA26894F9100002F001023E
:1035F0000DF10F060D46617C01920096E1228DF8D7
:103600000F20FFF7A7FE0028EAD02379012BE7D18E
:10361000A268617C94F91000009502F00102019209
:10362000FF22FFF7A3FFDCE730B504682379012B05
:1036300085B002D0002005B030BDA26894F910001A
:1036400002F001020D46617C01920DF10F02009221
:10365000C3228DF80F20E122FFF77CFE0028E9D07D
:103660002379012BE6D1A268617C94F910000095C2
:1036700002F001020192FF22FFF778FFDBE700BFB3
:1036800070B505682B79012B84B002D0002004B0FE
:1036900070BDAA6802F0010204460E4695F91000BA
:1036A000697C01920DF10F020092F0228DF80F203B
:1036B000E122FFF74FFE0028E8D02B79012BE5D15E
:1036C000AA68697C95F9100002F001020192221D9E
:1036D0000092FF22FFF74AFF0028D7D023793370EA
:1036E00004B070BD2DE9F041054682B00E46174684
:1036F00000F104082C682379012B03D0002002B0CC
:10370000BDE8F081A268617C94F9100002F001022A
:10371000CDE90082FF22FFF729FF0028EED016B185
:103720002B79DB07E6D4002FE9D02B793B7002B070
:10373000BDE8F08170B5044682B0051D226813799A
:10374000012B02D0002002B070BD9668517C92F926
:10375000100006F00106CDE90056FF22FFF706FF34
:103760000028EFD02379DB07E8D402B070BD00BF9A
:1037700002681379012B01D00020704710B5517CED
:10378000044692F91000926882B002F001020192A0
:10379000221D0092FF22FFF7E9FE28B12079C043E5
:1037A00000F0010002B010BD002002B010BD00BF4B
:1037B00002681379012B01D00020704770B5517C4D
:1037C000044692F91000926884B002F0010201925E
:1037D0000DF10F020092B425FF228DF80F50FFF774
:1037E000B9FDA0B1251D0EE09668517C92F910003C
:1037F00006F00106CDE90056FF22FFF7B7FE30B113
:103800002379DB0704D522681379012BECD0002043
:1038100004B070BD02681379012B01D000207047FD
:1038200070B584B004468DF80F1092F91000517CE9
:10383000926802F0010201920DF10F020092A5229E
:10384000FFF788FDA0B1251D0EE09668517C92F926
:10385000100006F00106CDE90056FF22FFF786FEB4
:1038600030B12379DB0704D522681379012BECD022
:10387000002004B070BD00BF002A3FD02DE9F04108
:10388000013A84B0044601F1FF3851FA82F60DF195
:103890000F0522681379012B03D0002004B0BDE886
:1038A000F081976892F91000517C07F00107CDE98B
:1038B0000057A52218F8017F8DF80F70FFF74AFD19
:1038C0000028EAD0271D22681379012BE5D1D2F810
:1038D00008C0517C92F910000CF00102CDE9007291
:1038E000FF22FFF743FE0028D7D02379DB07EAD475
:1038F0004645CED1012004B0BDE8F08101207047DB
:1039000002681379012B01D000207047F0B595684B
:1039100085B004460E4692F91000517C0DF10F025D
:1039200005F00105009296228DF80F200195FF22E7
:10393000FFF710FDA0B1271D0EE09568517C92F9AC
:10394000100005F00105CDE90075FF22FFF70EFE1E
:1039500030B12379DB0706D522681379012BECD02F
:10396000002005B0F0BD24682379012BF8D1A268AE
:1039700094F91000617C02F0010201920DF10F0236
:103980000092E1228DF80F20FFF7E4FC0028E7D039
:103990002379012BE4D1A268617C94F91000009690
:1039A00002F001020192FF22FFF7E0FDD9E700BF1C
:1039B000002A6BD02DE9F043013A85B04F1C044634
:1039C0000E4657FA82F74FF096090DF10F0522685F
:1039D0001379012B03D0002005B0BDE8F08392F9E4
:1039E0001000517C92688DF80F9002F00102CDE931
:1039F0000052FF22FFF7AEFC0028ECD004F10408CF
:103A000022681379012BE6D1D2F808C0517C92F9D3
:103A100010000CF00102CDE90082FF22FFF7A6FDA5
:103A20000028D8D02379DB07EAD4D4F8008098F8AE
:103A30000430012BCFD1D8F8082098F9100098F85D
:103A4000111002F00102CDE90052E1228DF80F20A1
:103A5000FFF780FC0028BED098F80430012BBAD1C3
:103A6000D8F8082098F8111098F9100002F0010217
:103A7000CDE90062FF22FFF779FD0028ABD00136C7
:103A8000BE42A4D1012005B0BDE8F08301207047FB
:103A9000F0B504682379012B85B002D0002005B071
:103AA000F0BD1646A2688DF80F100DF10F0702F059
:103AB0000102617C054694F91000CDE9007287226D
:103AC000FFF748FC2F1D2C682379012BE6D1A26853
:103AD000617C94F9100002F00102CDE90072FF222E
:103AE000FFF744FD0028D9D02B79DA07EBD4002E5C
:103AF000D5D0C3F34013337005B0F0BD01680B7926
:103B0000012B01D000207047F0B516468A6885B0B9
:103B100002F00102054691F91000497C01920DF175
:103B20000F02009200228DF80F207822FFF712FC7E
:103B3000A0B12F1D0EE0A268617C94F9100002F084
:103B40000102CDE90072FF22FFF710FD30B12B79A1
:103B5000DA0706D52C682379012BECD0002005B0BC
:103B6000F0BD5B09337005B0F0BD00BF026813798A
:103B7000012B01D00020704770B5517C044692F9AA
:103B80001000926884B002F0010201920DF10F0260
:103B90000092CC25A5228DF80F50FFF7DBFBA0B1DA
:103BA000251D0EE09668517C92F9100006F0010682
:103BB000CDE90056FF22FFF7D9FC30B12379DB07AE
:103BC00004D522681379012BECD0002004B070BD1D
:103BD00002681379012B01D00020704770B5517C29
:103BE000044692F91000926884B002F0010201923A
:103BF0000DF10F020092B425FF228DF80F50FFF750
:103C0000A9FBA0B1251D0EE09668517C92F9100029
:103C100006F00106CDE90056FF22FFF7A7FC30B100
:103C20002379DA0706D522681379012BECD000201E
:103C300004B070BDCC212046FFF7ECFD0028F6D083
:103C40000FE09668517C92F9100006F00106CDE96C
:103C50000056FF22FFF78AFC0028E8D02379DB0713
:103C6000E6D522681379012BE1D1EAE770B586B079
:103C7000CDE902230446FFF79BFD10B9002006B0F2
:103C800070BD22681379012BF8D192F91000517C94
:103C9000926802F0010201920DF11702009255257F
:103CA000A5228DF81750FFF755FB0028E6D0251DFB
:103CB00022681379012BE1D1517C92F910009268AE
:103CC00002F00102CDE90052FF22FFF74FFC00286D
:103CD000D4D02379DB07EBD40DF107050DF10F06E6
:103CE00015F8011F2046FFF795FD0028C6D0B54204
:103CF000F6D1C4E72DE9F04F8BB0CDE90623044699
:103D0000002004900291039004F1040B2046FFF779
:103D10004FFD049B069ADE0002EBC30928B15F4603
:103D200022681579012D07D00020079B1A46049BB5
:103D300013700BB0BDE8F08F9368517C92F91000BE
:103D400003F00103CDE90073FF222B46FFF70EFCC1
:103D50000028EAD0227912F0010AE1D113469B072C
:103D6000BB46E2D5F0212046FFF754FD0028DCD009
:103D7000069B083E334405932E465746029B002B74
:103D80005DD0082D5BD805F1FF3843FA08F808F03C
:103D9000010822681379012BC6D1916892F91000AD
:103DA00001F0010C517CCDF804C00DF12702009206
:103DB0004FEAC8128DF827207822FFF7CBFA0028A7
:103DC000B3D05B46AB461D4622681379012BABD1BD
:103DD000D2F808C0517C92F910000CF00102CDE934
:103DE0000052FF22FFF7C2FB00289ED0237913F078
:103DF0000102E9D129465D468B4603F06001602946
:103E00004FEAD31C3FD0029919B1082D01D8E045E3
:103E10008BD1BCF1000F28D019F80730334309F8D3
:103E200007307600013516F0FF06EDB2A6D1013756
:103E3000FFB2082F27D0029B0126002BA1D1049BA3
:103E40005BB1039BAB4208D9059BDB5D1E4214BFEF
:103E50004FF001084FF000089BE7039BA3EB050818
:103E6000B8FA88F84FEA581893E719F8071021EACA
:103E7000060109F80710990941EA531313F0010FDD
:103E800008BFAA46CDE7402D06D8079B049A1B78A9
:103E900093423FF63BAF48E799F8077009F1FF36C8
:103EA00009F1060C16F8011F082382EA010515F036
:103EB000010F4FEA520218BF82F08C0203F1FF3368
:103EC00018BFD2B213F0FF034FEA5101EDD166459E
:103ED000E8D19742D9D1049B0133DBB20493BAF104
:103EE000000F3FF422AFCDF80CA0CEE7F0B587B0BD
:103EF0000023824A00930193136843F480331360D4
:103F000003E0009BB3F5A04F09D0136803F400331E
:103F10000193009B01330093019B002BF1D0774B61
:103F20001B6813F4003318BF01230193019B012B7D
:103F300001D000BFFDE7714B71491A6C714842F026
:103F400080521A640A6842F440420A609A689A6091
:103F50009A6842F400429A609A6842F4A0529A60C9
:103F600058601A6842F080721A601A689201FCD593
:103F7000654A40F205711160996821F0030199606A
:103F8000996841F00201A2F580629960936803F09C
:103F90000C03082BFAD1936803F00C03042B00F0F8
:103FA0008C80082B00F08E80584D594BC5F8903905
:103FB000524BD5F890199A68564C5748C2F30312E1
:103FC0002A44002692F8202CD140544AC5F8901972
:103FD000E260534A596FA260596B524A21F0800146
:103FE0005963596F41F080715967196B0A431A631D
:103FF0005A6B5A639A6B9A631A6C4B490A431A6458
:10400000596C4A4A0A435A6402A948F2FF73029360
:104010004FF6FF770396FEF7BDF800F58060029734
:10402000FEF7B8F800F580600297FEF7B3F800F5E8
:104030008060FEF7AFF800F58060FEF7ABF800F5A2
:104040008060FEF7A7F800F58060FEF7A3F800F5A2
:104050008060FEF79FF800F58060FEF79BF8084649
:10406000FEF774FBD4F8FC30029A3149314843F032
:104070008073C4F8FC30304BC3F8B01F5E60196821
:1040800041F001011960D5F890394FF47A71B3FB12
:10409000F1F3013BB3F1807F2849B2FBF1F2C0F8A4
:1040A0003C2708D24FF0E022F0215361072384F827
:1040B00023109661136107B0F0BD144D204BC5F875
:1040C000903975E753685168104D13F4800F01F073
:1040D0003F01536814BF1A4A0D4AB2FBF1F1074A77
:1040E0005268C2F30142C3F38813013201FB03F3A8
:1040F0005200B3FBF2F3C5F8903959E7003802409B
:104100000070004008544007003C024000000020BE
:104110000024F40000ED00E0000002400003FA0576
:1041200000000008FF916700FFC9FE103357070029
:1041300055CEACC5402A0020001000E040420F00E0
:1041400000127A0082B0064B002201920193019B7B
:1041500003EB80000190019B196002B0704700BF23
:1041600050280040704700BF704700BF704700BF35
:1041700010B5124C94F8EA3023B9114B4FF4802259
:104180005A6110BD4FF0E022D2F8103D23F0060333
:10419000C2F8103DFDF788FB94F8EA30002BECD014
:1041A000D4F8F0309B68DB07E7D5D4F8EC2113682E
:1041B00023F0030161F307031360DEE7402A0020C8
:1041C000003C01402DE9F04FB24CD4F8EC305A6974
:1041D000D2078BB002D50BB0BDE8F08F5A699B694E
:1041E00012EA0309F7D0C9F3074319F4002F00932B
:1041F00040F0E280009B590743D419F0020F5FFAA8
:1042000089F603D0D4F8EC3002225A61B9F1000FDC
:10421000C0F2EA8119F4006FC9F3072540F0488124
:10422000330708D59C4B9D48D3F83C3C9847D4F8BD
:10423000EC3008225A61F70600F1C081EE0600F169
:104240006D81A90600F1E980009BDA0609D5924B41
:104250009248D3F84C3C9847D4F8EC304FF4801295
:104260005A61009B9B06B6D58B4B8C48D3F8503CCB
:104270009847D4F8EC304FF400125A610BB0BDE807
:10428000F08FD4F8F0209369D26913401FFA83FAB3
:10429000BAF1000FB1D0DFF81482CDF80C900023F2
:1042A000A8F118051F461AF0010F78D0FEB2D4F815
:1042B000F02004EB86031069D3F8F810536B89687B
:1042C000F340DB01DBB203430B4013F00109D9B229
:1042D00040F0A6810A0740F1C381D8F800200823E6
:1042E0009360994619F0800F59D0D5E94CC0D5F8A4
:1042F0002431D8F800E0ACEB00018B42DEF8182046
:1043000028BF0B4692B20333B2EB930F47D9D4F8D0
:10431000F02094F8E390323604EB8603CDE901787F
:10432000674698469446874237D9D5F82431391ADA
:10433000994228BF194601F1030BD5F828314FEAFD
:104340009B0BB9F1000F10D18AB203329210D8F84A
:10435000E8600AD04846013053F8047B3760824257
:10436000F9D1D5E94C70D5F8283108440B44B8424E
:10437000C5F82831C5F83401DEF818300AD195F8AF
:104380001C11012202FA01F1DCF8342022EA0102B8
:10439000CCF834209BB29B45C5D3DDE901785FEAB8
:1043A0005A0A07F1010708F1040805F128057FF40E
:1043B0007AAFDDF80C9020E7D4F8F0309D69DB6926
:1043C0001D402D0C3FF416AF04F1E008DFF8C8B033
:1043D00004F59A760027C24608E06D0807F1010748
:1043E00006F1040608F128083FF404AFEB07F4D502
:1043F000F9B204EB8103D4F8F020D3F834319B6890
:1044000052691340D807DAB200F13A81930740F1BC
:104410006281336802229A60DFE7D4F8F030D4F882
:10442000F8109A680868C2F34102022A06BF032204
:1044300062F30A006FF30A0008605A6842F480725F
:104440005A6006A8FEF782F9D4E93B21D368079D9C
:104450006FF38D23D36088681149C0F34100014494
:1044600091F8AC11032900F05C810E490E48012639
:10447000294484F8E26081424FF04006A4F8E460E9
:1044800000F2A9810E2161F38D234FF40051D36016
:104490005161D9E6402A002000000020202B002096
:1044A00010B10608401E1BFF3F420F00382B0020B2
:1044B00000238DF8133094F8F2318DF81330B54B9A
:1044C000B548D3F8443C9847D4F8F030D4F8EC2001
:1044D000986894F8EA304FF400615161002B3FF482
:1044E0009FAEC2077FF59CAE94F8F531012B7FF4A7
:1044F00097AE9DF81330032B7FF492AED4F8EC31D5
:10450000A6491A6842F001021A601A6842F00302D2
:104510001A600B6943F006030B6181E6D4E93B1690
:104520007368002723F0010373600597059B43F030
:1045300020030593059B67F38A130593059B0B6185
:104540000B690593BC46964B03E00A690592013B53
:1045500002D0059A9006F8D494F8E12052B1914B1C
:1045600003EB820EFF2253F8040F8260D86B734571
:104570008260F8D10B2363F3070763F3070C4FF056
:10458000FF33B3614FF00113F3617761C6F810C0D8
:10459000336885486FF30A13336094F8E320D4F846
:1045A0003431012A186100F0B5804FF480534B611B
:1045B000784B7948D3F8403C984742E6D4F8EC3041
:1045C0009A6922F010029A611A6AC2F343400228E3
:1045D00002F00F0100F0B080062800F087809A6991
:1045E00042F010029A6129E694F8EA303BB1D4F81F
:1045F000EC21136823F0030161F307031360D4F87F
:10460000F020644B6448D3F8481C536823F001033E
:1046100053608847D4F8EC304FF000425A61F9E516
:10462000516BD8F800005B4B4FF0010C0CFA07FC03
:1046300021EA0C0151630122D3F8343C82603146F7
:104640005548984794F8E330012B00F0B18019F0F9
:10465000020F3FF447AED8F8003002229A609EE67F
:10466000CB0604D5D8F8003010229A6097E64806A9
:1046700058BF8946EBD5D8F8003040229A608EE6C4
:1046800094F8E320336801208242986007D11A69C8
:10469000D8F87C33C2F312029B1AC8F88C33DBF8CB
:1046A000303C5046984794F8E330012B7FF495AEA8
:1046B000002F7FF492AE94F8F131052B7FF48DAE8C
:1046C000D4F83431384A1A61384A5A611A684FF0BE
:1046D00080221A6081E610077FF57FAEDBF8383C58
:1046E00050469847336808229A6076E601EB8101CC
:1046F00004EBC101D4F8B061D1F86C04C2F30A1222
:1047000002443068C4F8AC063068C4F8B006C1F89A
:104710006C2464E7254A5A611A684FF080221A60B7
:1047200043E7002184F8E2104FF40071A4F8E4108C
:10473000092161F38D23A8E647F6F07010423FF49B
:104740004EAFC2F30A1201EB810004EBC00002F18C
:10475000030C5FEAAC0CD0F86064D4F8B0E14FEA27
:10476000810818BF002006D00130DEF8007046F83E
:10477000047B8445F8D1414404EBC101D1F86004C5
:104780001044C1F86004D1F86C040244C1F86C24F0
:1047900025E700BF00000020202B002000ED00E0F6
:1047A000400D0300342B002018000860EC3000207E
:1047B000002F7FF44CAF94F8F131042B7FF447AF16
:1047C000D4F834312B4A1A612B4A5A611A684FF0D7
:1047D00080221A603BE72948A5F57401A1F5105124
:1047E000814203D80D2161F38D234EE624492548EB
:1047F0002944814203D20C2161F38D2345E62248EE
:10480000A5F18C71A1F54341814203D80B2161F3DD
:104810008D233AE61D491E482944814203D20A21CC
:1048200061F38D2331E61B491B482944814203D2A1
:10483000092161F38D2328E61848A5F1B771A1F588
:104840005851814203D2082161F38D231DE614499A
:1048500014482944814203D2072161F38D2314E6D1
:10486000114912482944814234BF0621052161F3D0
:104870008D230AE618000860EC300020DFC8100025
:104880002013FBFE20D61300FF69180000D3CEFED4
:1048900040771B00C05BB3FEC091210040AC2700F5
:1048A000C01D6AFE40E13300803C36FEE09C4100C2
:1048B00082B08DED010A019802B07047C31783EAF8
:1048C000400070479FED087AC0ED020AC7EE007AFB
:1048D0000023036030EEA77AC0ED017AC0EE877A3C
:1048E000C0ED037A704700BF83F9223E80ED010AD4
:1048F000704700BF90ED017AD0ED007AC0ED020A5A
:1049000030EE877AC0EE876A30EE677AE6EE877A15
:10491000B0EE670AC0ED007A704700BF80ED000A74
:10492000704700BF9FED047AC7EE007A77EEA07A59
:1049300080EEA70A704700BF4E2DA63D00230360FE
:104940004360836080ED030A704700BFF5EEC00A44
:10495000F1EE10FA06DCF0EE407A80ED000AB0EEDF
:10496000670A704760EE810A90ED007A77EE607A10
:10497000F4EEC07AF1EE10FA0ADC77EE200AF4EEDB
:10498000C00AF1EE10FA8CBFF0EE407AF0EE607AD9
:10499000C0ED007AB0EE670A704700BFB4EEE00ADF
:1049A000F1EE10FA07D4B4EEC10AF1EE10FA88BFA6
:1049B000B0EE410A7047B0EE600A7047894BB3FB16
:1049C000F2F399420DD300234FF07E520260436010
:1049D0008360C36003610023836143610362C36139
:1049E000704707EE902ADFED806AB8EE677A07EE2F
:1049F000901A27EE267AF8EE677A27EE277AFDEEF0
:104A0000C77A17EE903A2033402B00F2DA80DFEDC0
:104A1000777AB4EEE77AF1EE10FAF0EE477A0CDD31
:104A2000DFED735A9FED736AF0EE676AF4EEC66AC3
:104A3000F1EE10FA77EEE57AF6DCDFED6F6AF4EE70
:104A4000E67AF1EE10FA0CD5DFED695A9FED6B6A4C
:104A5000F0EE676AF4EEC66AF1EE10FA77EEA57A28
:104A6000F6D4DFED676AF4EEE67AF1EE10FA00F3C1
:104A70009C80DFED646AF4EEE67AF1EE10FA44BF52
:104A8000DFED5D6A76EEE77A27EEA76ADFED5E5A24
:104A9000DFED5E6A9FED5E5ADFED5E4AE6EE256A67
:104AA000DFED5D5AA6EE265A27EE864AE6EE055A57
:104AB000F7EE006AE4EE257AF0EE665AE7EEA45AC5
:104AC000E7EEE46A86EEA54ADFED4D6A77EE267AD8
:104AD000BDEEE76A16EE103A2033402B6AD8B4EEEA
:104AE000E67AF1EE10FA0CDD9FED416ADFED416AE6
:104AF000B0EE677AB4EEE67AF1EE10FA77EEC67AA7
:104B0000F6DC9FED3D7AF4EEC77AF1EE10FA0CD5A3
:104B10009FED376ADFED396AB0EE677AB4EEE67A78
:104B2000F1EE10FA77EE867AF6D49FED357AF4EE50
:104B3000C77AF1EE10FA49DD9FED2C7A77EE677AAD
:104B400067EEA76A9FED306A9FED307ADFED304A5D
:104B50009FED315AA6EE867A27EEA63AE6EE874A10
:104B6000B7EE006AA6EEA45AB6EE007AE3EE057A36
:104B7000F8EE003A36EE676A67EEA37A26EE077A19
:104B8000B7EE005AC5EE256A80ED044A26EE877A14
:104B900026EE866A66EEA77A80ED007A80ED016ADD
:104BA00080ED027AC0ED037A15E7DFED106A76EE4C
:104BB000E77A69E7DFED197AB6EE007AB7EE006AB8
:104BC000DEE7B7EE004AF0EE445A7DE79FED0D7A3E
:104BD000F4EEC77AF1EE10FA44BF9FED077A77EE54
:104BE000677AADE720A1070027D4D236DB0F494012
:104BF000DB0FC940E4CB1641DB0F49C0E4CB16C143
:104C0000DB0FC93FDB0FC9BF9A7C2E36FAAF4FB915
:104C10003587083CF304353FA4AA2ABE00000000F3
:104C2000FDEEC07A17EE903A2033402B53D8DFEDDB
:104C30002B7AB4EEE70AF1EE10FA0CDDDFED286A0C
:104C40009FED287AF0EE407AF4EEC77AF1EE10FA92
:104C500030EE660AF6DCDFED247AB4EEE70AF1EE18
:104C600010FA0CD5DFED1E6A9FED207AF0EE407A47
:104C7000F4EEC77AF1EE10FA30EE260AF6D4DFED44
:104C80001C7AB4EEE70AF1EE10FA1FDCDFED197AB8
:104C9000B4EEE70AF1EE10FA44BFDFED137A37EE17
:104CA000C00A60EE007A9FED147A9FED146ADFED82
:104CB000146AA7EE876A9FED137AE7EE866A60EEC4
:104CC000275AA7EEA67AA5EE870A7047DFED037A8A
:104CD00037EEC00AE5E79FED0C0A7047DB0F49404D
:104CE000DB0FC940E4CB1641DB0F49C0E4CB16C152
:104CF000DB0FC93FDB0FC9BF9A7C2E36FAAF4FB925
:104D00003587083CA4AA2ABE000000009FED307A37
:104D100070EE077AFDEEE76A16EE903A2033402BEC
:104D200053D8B4EEC70AF1EE10FA0CDD9FED296AF4
:104D3000DFED296AB0EE677AB4EEE67AF1EE10FAAA
:104D400077EEC67AF6DC9FED257AF4EEC77AF1EEBF
:104D500010FA0CD59FED1F6ADFED216AB0EE677A7D
:104D6000B4EEE67AF1EE10FA77EE867AF6D49FED9D
:104D7000187AF4EEC77AF1EE10FA21DC9FED197A79
:104D8000F4EEC77AF1EE10FA44BF9FED147A77EE95
:104D9000677A27EEA77ADFED146ADFED145A9FEDEC
:104DA000146AE7EE265ADFED136AA7EE256A27EEAE
:104DB000875AE7EE066AE5EE267AB0EE670A704794
:104DC0009FED0D7A77EE677AE3E79FED0C0A704767
:104DD000DB0FC93FDB0FC940E4CB1641DB0F49C0F5
:104DE000E4CB16C1DB0FC9BF9A7C2E36FAAF4FB9A0
:104DF0003587083CA4AA2ABEDB0F4940000000000A
:104E0000B5EE400AF1EE10FA25D007EE902AF8EE42
:104E1000670ADFED117A08B5034660EEA70A084677
:104E2000F0EE406A13B9FFF74DFD0CE0022B06D0FF
:104E3000032B08D1FFF776FDBDE808407EE5FBF7C0
:104E400037FCFBF741FCFCEEE66A16EE903A99B2AD
:104E5000BDE80840B2E57047BD378635B5EE400A7B
:104E6000F1EE10FA01D1044B03E003280CBF034B11
:104E7000034B0B60704700BF49060008D5060008C9
:104E80005D07000830EE604A90ED016A037824EE79
:104E9000066A002B5AD101F00103D0ED0C7A002BE9
:104EA00060D074EE677AF0EE440AC7EE816A90ED46
:104EB0000A7AC0ED0C0AB5EEC07AF1EE10FA56DCB3
:104EC000D0ED037A66EEA76A90ED057AD0ED0B5A25
:104ED00020EE077A76EE077A77EEA57A77EEA67A55
:104EE000F4EEE71AF1EE10FA63DCB4EEE72AF1EE25
:104EF00010FA8CBFB0EE670AB0EE420A70EE677A25
:104F0000D0ED044A90ED025A80ED107A67EEA47A53
:104F1000B0EE657AE4EE057A4A0780ED0E6AA1EEFE
:104F2000277AC0ED0D5AC0ED0F6A80ED110A08D541
:104F3000F0EEC77AF0EEE56AF4EEE67AF1EE10FAFA
:104F40004BD580ED0B7A0B0736D4704711F0010377
:104F50004FF000020CBFF0EE607AF0EE447A02707F
:104F6000002B9ED177EEE07AC7EE816A9FE7D0ED05
:104F7000077A90ED035AF5EE407AF1EE10FA05D17A
:104F8000DFED175AC5EE877AC0ED077A31EE277A42
:104F9000D0ED067A80ED081AC1EE075A76EEE76A80
:104FA000C0ED095AE5EEA67A65EE276AC0ED067AED
:104FB0008AE7B0EE610AA1E7F4EEC71AF1EE10FA43
:104FC00008DCB4EEC72AF1EE10FA8CBFF0EE471AF7
:104FD000F0EE421AC0ED0B1A7047B0EE657AB2E7F8
:104FE00083F9223E00230122027083634363C3637B
:104FF000C36203630364836143647047DFED1A7A1D
:1050000080ED010AF4EEE70AF1EE10FAC0ED020AB3
:1050100080ED031AC0ED051A10DC002383600361E4
:105020000023012280ED0A2A027083634363C36375
:10503000C36203630364836143647047B4EEE70AA9
:10504000F1EE10FA0CDD81EE007AC0EE207AF0EE7F
:10505000006A77EE877A86EEA77A80ED047ADFE73A
:1050600000230361DCE700BFBD378635F0EEC07A70
:10507000B0EEE07AB4EEE77AF1EE10FAB4BFB0EE3B
:10508000676AB0EE476AB5EE406AF1EE10FA46D0B4
:10509000B4EEE77AF1EE10FA8CBFF0EE675AF0EE5C
:1050A000475AC5EE866ADFED1F2ADFED1F3ADFEDB6
:1050B0001F4A9FED1F5A9FED1F3A9FED1F4ADFEDDC
:1050C0001F5AE6EEE23AA6EE834AE6EEA34AB7EEB0
:1050D000006AA6EEA45AA6EE846AE6EE855AC5EEEC
:1050E000866AB4EEE77AF1EE10FA48BFDFED147A83
:1050F000F5EEC00A48BF77EEE66AF1EE10FA48BF57
:10510000DFED107AB5EEC00A48BF77EEE66AF1EE41
:1051100010FA48BFF1EE666AB0EE660A7047DFED3E
:10512000076ADEE739094E3DE3B59E3E88FA163E32
:1051300045FE7F3F99FB243F69A2163EA7DFA834B6
:10514000DB0FC93FDB0F4940B7EE007AF0EEC07AC3
:10515000F4EEC77AF1EE10FA77EE676A1DD8B1EE79
:10516000E67ADFED0F5ADFED0F6A9FED0F6AE7EE8B
:10517000A65ADFED0E6AA7EEA56AE7EE866A67EE2D
:10518000266AB5EEC00AF1EE10FA44BF9FED087A28
:1051900077EE666AB0EE660A7047DFED066AF0E702
:1051A0002716983D306E99BC843459BEA40DC93F72
:1051B000DB0F494000000000B0FBF1F301FB1303DB
:1051C00008463BB11946B0FBF1F301FB1303084657
:1051D000002BF7D1704700BF44F25063984203DDC3
:1051E000A0F50C40A0387047034B9842BCBF00F5B7
:1051F0000C40A030704700BFB0B9FFFF48F6A04395
:10520000984203DDA0F50C40A03870470028B8BFD5
:10521000C018704780EAE073A3EBE0738B4203DBB6
:10522000002803DD401A704700207047FDD0084475
:10523000704700BF884203DB9042A8BF104670470A
:105240000846704700230361704700BF036970B5CB
:105250000446ABB1224DD4ED067A77EE807A013365
:1052600004F11C062361C4ED067A3046FBF79EFA72
:10527000626855F8BC3C9B1AA268934208D870BD7E
:105280004268174D002AE6D155F8BC2C4260E2E78F
:10529000E06A94ED0A0A5EF0EDFFD4ED057AB4EE13
:1052A000E70AF1EE10FA04DD237B7BB103232370C0
:1052B00070BDD4ED047AD4ED066AF8EE677A022365
:1052C00086EEA77A237084ED067A70BD55F8BC1C73
:1052D000616000222361A2613046BDE87040B1E701
:1052E000402A00202DE9F04100F11C060446324618
:1052F000054600F1640752ED017AB1EC010A77EE40
:10530000807A104642ED017A1832FBF74FFA974245
:10531000F1D12369274F62680133236157F8BC3C00
:105320009B1AA268934229D904F14808E86A95EDCE
:105330000A0A5EF09FFFD4ED057AB4EEE70AF1EEBB
:1053400010FA05F118051BDCA845EFD1D4ED047A5D
:10535000D4ED066A94ED0C7AD4ED125AF8EE677A21
:10536000022386EEA76A2370C7EE276A85EEA77A26
:1053700084ED066AC4ED0C6A84ED127ABDE8F08112
:10538000237B1BB103232370BDE8F08157F8BC1CBD
:105390002361002230466160A261FFF753FF04F1F0
:1053A00034002263FFF74EFFA26404F14C00BDE815
:1053B000F04147E7402A002010B4019C401AA4EBBA
:1053C000030C00FB0CFC511A5DF8044B9CFBF1FC38
:1053D0000CEB0300704700BF30EE600A32EE612A2A
:1053E00071EE600A22EE002A82EE200A30EE210AD7
:1053F000704700BFD1ED007ADFEDE36A37EEA67AA1
:10540000BDEEC76A16EE103A2033402B00F25D82E3
:10541000F4EEE67AF1EE10FA0CDDDFEDDC5A9FEDEA
:10542000DC6AF0EE476AF4EEC66AF1EE10FA37EE87
:10543000657AF6DCDFEDE26AB4EEE67AF1EE10FAB8
:105440000CD5DFEDD25A9FEDD56AF0EE476AF4EE47
:10545000C66AF1EE10FA37EE257AF6D4DFEDCA6AA5
:10546000B4EEE67AF1EE10FA00F30D82DFEDD36AC6
:10547000B4EEE67AF1EE10FA44BFDFEDD16A36EE13
:10548000C77A67EE076A9FEDC76A9FEDC75ADFEDDF
:10549000C75AA6EE865A9FEDC66AE6EE855A27EEF3
:1054A000264AA6EEA56AA4EE067AF0EE474ABDEEBD
:1054B000E77A17EE103A2033402B00F203829FED7B
:1054C000BD7AF4EEC77AF1EE10FA0CDD9FEDAF6A0B
:1054D0009FEDAF7AF0EE676AF4EEC76AF1EE10FA6C
:1054E00077EEC67AF6DC9FEDB67AF4EEC77AF1EE87
:1054F00010FA0CD59FEDA56A9FEDA87AF0EE676AC9
:10550000F4EEC76AF1EE10FA77EE867AF6D49FEDE4
:105510009E7AF4EEC77AF1EE10FA40F309829FED1D
:10552000A57A77EE677A27EEA77ADFED9E6ADFED40
:105530009E5A9FED9E6AE7EE265ADFED9D6AA7EE22
:10554000256A27EE874AE7EE066AE4EE267AB0EE91
:10555000675A91ED017ADFED8C7A77EE276ABDEE1E
:10556000E66A16EE103A2033402B00F2A481B4EE26
:10557000E77AF1EE10FA0CDDDFED845ADFED847A84
:10558000B0EE666AB4EEE76AF1EE10FA76EEE56A1E
:10559000F6DCDFED8B7AF4EEE76AF1EE10FA0CD56B
:1055A000DFED7A5ADFED7D7AB0EE666AB4EEE76A37
:1055B000F1EE10FA76EEA56AF6D4DFED737AF4EE2A
:1055C000E76AF1EE10FA40F3A781DFED7A7A77EE21
:1055D000E66A66EEA67ADFED735A9FED734A9FED99
:1055E000736AA7EEA54ADFED725AA7EE846A66EEEB
:1055F000A73AE7EE865AE3EEA56A66EEC52A24EEE0
:10560000A63AB0EE666AFDEEC77A17EE903A2033FE
:10561000402B00F24D81DFED677AB4EEE77AF1EED0
:1056200010FA0CDDDFED595ADFED597AF0EE476ADA
:10563000F4EEE76AF1EE10FA37EE657AF6DCDFEDAC
:10564000607AB4EEE77AF1EE10FA0CD5DFED4F5A3E
:10565000DFED527AF0EE476AF4EEE76AF1EE10FA07
:1056600037EE257AF6D4DFED487AB4EEE77AF1EE3C
:1056700010FA40F34581DFED4F7A37EEC77A67EED7
:10568000077ADFED485A9FED484ADFED486AA7EEFA
:10569000A54ADFED475AE7EE846A67EE273AE7EE60
:1056A000A65AA3EEA57AF0EE476AD1ED027ADFEDB5
:1056B000365A37EEA57ABDEEC74A14EE103A2033BB
:1056C000402B00F2EA80F4EEE57AF1EE10FA0CDD00
:1056D000DFED2E3A9FED2E4AF0EE475AF4EEC45A13
:1056E000F1EE10FA37EE637AF6DCDFED355AB4EE00
:1056F000E57AF1EE10FA0CD5DFED243A9FED274A5A
:10570000F0EE475AF4EEC45AF1EE10FA37EE237A6F
:10571000F6D4DFED1D5AB4EEE57AF1EE10FA40F35F
:10572000E380DFED245A35EEC77A67EE075A9FED26
:105730001D4A9FED1D2ADFED1D3AA5EE842A9FED3F
:105740001C4AE5EE823A67EE251AA5EEA34AA1EEC1
:10575000847A25EE072A64EE871A26EE821A26EE50
:10576000077A26EEA10AFDEEE75A15EE903A2033AD
:10577000402B00F28D80DFED0F5AF4EEE57AF1EE6A
:1057800010FA2CDD1EE000BFDB0FC93FDB0FC94064
:10579000E4CB1641E4CB1641DB0FC940E4CB16C184
:1057A000DB0FC93F9A7C2E36FAAF4FB93587083CDC
:1057B000A4AA2ABEDB0F494000000000DB0FC9BFCE
:1057C000DB0F49C05FED0C3A1FED0E4AF0EE675A51
:1057D000F4EEC45AF1EE10FA77EEE37AF6DC5FED00
:1057E000085AF4EEE57AF1EE10FA0CD55FED163AB0
:1057F0001FED164AF0EE675AF4EEC45AF1EE10FAB5
:1058000077EEA37AF6D45FED1A5AF4EEE57AF1EE6C
:1058100010FA5DDD5FED195A75EEE77A27EEA74ABB
:105820005FED205A5FED203A5FED200AE4EE253A65
:1058300067EE845AE4EE230A5FED233AE4EE203A61
:10584000E5EEA37A64EEA74A65EE275AA6EEA42AEF
:10585000E6EEE51A67EEC67A31EE241A75EEC05A06
:1058600080ED007AC0ED017AC0ED026A80ED031A86
:10587000C0ED041AC0ED052AC0ED065A80ED072AD6
:1058800080ED083A70475FED356A36EEC77AF8E585
:105890005FED375AF0EE657AE0E71FED392AF0EE5A
:1058A000421AB0EE420AB0EE421AB0EE427A5AE71D
:1058B0005FED3F6AF9E61FED403AF0EE432AB0EEA5
:1058C000436AA0E61FED445A43E65FED454AEEE524
:1058D0005FED465AF4EEE57AF1EE10FA44BF5FED63
:1058E000485A75EEE77A99E75FED4C5AB4EEE57ADF
:1058F000F1EE10FA44BF5FED4E5A35EEC77A14E769
:105900005FED527AB4EEE77AF1EE10FA44BF5FED44
:10591000547A37EEC77AB2E65FED587AF4EEE76A6A
:10592000F1EE10FA44BF5FED5A7A77EEE66A50E680
:105930001FED5E7AF4EEC77AF1EE10FA44BF1FED68
:10594000607A77EE677AEEE500B5B0F900C0B0F99D
:105950000220B0F90410B0F90630B0F90800624531
:1059600002DB96466246F446834202DC86461846CF
:1059700073466345A8BF63461BB28242B8BF024666
:105980008B4212B202DC0846194603469A4205DAF7
:105990008A4202DA08465DF804FB134619460846B7
:1059A0005DF804FB0023036143618361C36103600D
:1059B000036243628362C36243600363436383633E
:1059C000C3638360036443648364C364C3607047D8
:1059D000D1ED017A91ED007AD0ED044A90ED065AAE
:1059E000D0ED075A90ED050AD0ED080AD0ED0A1A5D
:1059F000D0ED0C2A90ED0D3AD0ED0E3A90ED091A4B
:105A000090ED0B2AF8EEE76AD1ED027AB8EEC77A8C
:105A1000F8EEE77A26EEA64AA7EE275AE7EE074AFF
:105A2000B0EE446A75EE875AA7EE076AE7EE272ABA
:105A3000E7EEA73AA7EE260AE7EE260AE6EEA71A51
:105A4000A6EEA73A31EE041AC0ED044A90ED0F4AD3
:105A5000D0ED104A80ED065AC0ED075A90ED115A6C
:105A6000D0ED125AC0ED0E3AA7EEA76A34EE274ADF
:105A700074EE874A75EEA75A35EE265A32EE262A7C
:105A800080ED0F4AC0ED104A80ED115A80ED050AF5
:105A9000C0ED080A80ED091AC0ED0A1A80ED0B2A44
:105AA000C0ED0C2A80ED0D3AC0ED125A90ED004A7F
:105AB00090ED025AD0ED014AD0ED133AD0ED035AE1
:105AC000A7EE064AB0EE457AA7EE867AE6EE864A5B
:105AD000F7EE007A73EEA77A35EE866AC0ED137A98
